{
  "contractName": "VehicleModel",
  "abi": [
    {
      "constant": true,
      "inputs": [
        {
          "name": "",
          "type": "uint256"
        }
      ],
      "name": "models",
      "outputs": [
        {
          "name": "id",
          "type": "uint256"
        },
        {
          "name": "brand",
          "type": "string"
        },
        {
          "name": "model",
          "type": "string"
        },
        {
          "name": "numberOfSeats",
          "type": "uint8"
        },
        {
          "name": "transmission",
          "type": "uint8"
        },
        {
          "name": "engineSize",
          "type": "string"
        },
        {
          "name": "fuelType",
          "type": "uint8"
        },
        {
          "name": "bodyStyle",
          "type": "uint8"
        },
        {
          "name": "numberOfDoors",
          "type": "uint256"
        },
        {
          "name": "modelYear",
          "type": "uint256"
        }
      ],
      "payable": false,
      "stateMutability": "view",
      "type": "function"
    },
    {
      "constant": true,
      "inputs": [],
      "name": "id",
      "outputs": [
        {
          "name": "",
          "type": "uint256"
        }
      ],
      "payable": false,
      "stateMutability": "view",
      "type": "function"
    },
    {
      "anonymous": false,
      "inputs": [
        {
          "indexed": false,
          "name": "id",
          "type": "uint256"
        }
      ],
      "name": "ModelAdded",
      "type": "event"
    },
    {
      "constant": false,
      "inputs": [
        {
          "name": "_brand",
          "type": "string"
        },
        {
          "name": "_model",
          "type": "string"
        },
        {
          "name": "_numberOfSeats",
          "type": "uint8"
        },
        {
          "name": "_transmission",
          "type": "uint256"
        },
        {
          "name": "_engineSize",
          "type": "string"
        },
        {
          "name": "_fuelType",
          "type": "uint256"
        },
        {
          "name": "_bodyStyle",
          "type": "uint256"
        },
        {
          "name": "_numberOfDoors",
          "type": "uint256"
        },
        {
          "name": "_modelYear",
          "type": "uint256"
        }
      ],
      "name": "addModel",
      "outputs": [],
      "payable": false,
      "stateMutability": "nonpayable",
      "type": "function"
    },
    {
      "constant": true,
      "inputs": [
        {
          "name": "_modelId",
          "type": "uint256"
        }
      ],
      "name": "getModelYear",
      "outputs": [
        {
          "name": "",
          "type": "uint256"
        }
      ],
      "payable": false,
      "stateMutability": "view",
      "type": "function"
    }
  ],
  "bytecode": "0x608060405234801561001057600080fd5b50610dce806100206000396000f3fe608060405234801561001057600080fd5b506004361061004c5760003560e01c806359388f9b146100515780636a030ca9146100935780638ff449f914610273578063af640d0f1461049c575b600080fd5b61007d6004803603602081101561006757600080fd5b81019080803590602001909291905050506104ba565b6040518082815260200191505060405180910390f35b6100bf600480360360208110156100a957600080fd5b810190808035906020019092919050505061081d565b604051808b815260200180602001806020018a60ff1660ff1681526020018960018111156100e957fe5b60ff1681526020018060200188600181111561010157fe5b60ff16815260200187600881111561011557fe5b60ff16815260200186815260200185815260200184810384528d818151815260200191508051906020019080838360005b83811015610161578082015181840152602081019050610146565b50505050905090810190601f16801561018e5780820380516001836020036101000a031916815260200191505b5084810383528c818151815260200191508051906020019080838360005b838110156101c75780820151818401526020810190506101ac565b50505050905090810190601f1680156101f45780820380516001836020036101000a031916815260200191505b50848103825289818151815260200191508051906020019080838360005b8381101561022d578082015181840152602081019050610212565b50505050905090810190601f16801561025a5780820380516001836020036101000a031916815260200191505b509d505050505050505050505050505060405180910390f35b61049a600480360361012081101561028a57600080fd5b81019080803590602001906401000000008111156102a757600080fd5b8201836020820111156102b957600080fd5b803590602001918460018302840111640100000000831117156102db57600080fd5b91908080601f016020809104026020016040519081016040528093929190818152602001838380828437600081840152601f19601f8201169050808301925050505050505091929192908035906020019064010000000081111561033e57600080fd5b82018360208201111561035057600080fd5b8035906020019184600183028401116401000000008311171561037257600080fd5b91908080601f016020809104026020016040519081016040528093929190818152602001838380828437600081840152601f19601f820116905080830192505050505050509192919290803560ff16906020019092919080359060200190929190803590602001906401000000008111156103ec57600080fd5b8201836020820111156103fe57600080fd5b8035906020019184600183028401116401000000008311171561042057600080fd5b91908080601f016020809104026020016040519081016040528093929190818152602001838380828437600081840152601f19601f82011690508083019250505050505050919291929080359060200190929190803590602001909291908035906020019092919080359060200190929190505050610a6d565b005b6104a4610c80565b6040518082815260200191505060405180910390f35b600080821180156104cd57506001548211155b61053f576040517f08c379a00000000000000000000000000000000000000000000000000000000081526004018080602001828103825260108152602001807f496e76616c6964206d6f64656c2069640000000000000000000000000000000081525060200191505060405180910390fd5b610547610c86565b6000808481526020019081526020016000206040518061014001604052908160008201548152602001600182018054600181600116156101000203166002900480601f0160208091040260200160405190810160405280929190818152602001828054600181600116156101000203166002900480156106085780601f106105dd57610100808354040283529160200191610608565b820191906000526020600020905b8154815290600101906020018083116105eb57829003601f168201915b50505050508152602001600282018054600181600116156101000203166002900480601f0160208091040260200160405190810160405280929190818152602001828054600181600116156101000203166002900480156106aa5780601f1061067f576101008083540402835291602001916106aa565b820191906000526020600020905b81548152906001019060200180831161068d57829003601f168201915b505050505081526020016003820160009054906101000a900460ff1660ff1660ff1681526020016003820160019054906101000a900460ff1660018111156106ee57fe5b60018111156106f957fe5b8152602001600482018054600181600116156101000203166002900480601f0160208091040260200160405190810160405280929190818152602001828054600181600116156101000203166002900480156107965780601f1061076b57610100808354040283529160200191610796565b820191906000526020600020905b81548152906001019060200180831161077957829003601f168201915b505050505081526020016005820160009054906101000a900460ff1660018111156107bd57fe5b60018111156107c857fe5b81526020016005820160019054906101000a900460ff1660088111156107ea57fe5b60088111156107f557fe5b8152602001600682015481526020016007820154815250509050806101200151915050919050565b6000602052806000526040600020600091509050806000015490806001018054600181600116156101000203166002900480601f0160208091040260200160405190810160405280929190818152602001828054600181600116156101000203166002900480156108cf5780601f106108a4576101008083540402835291602001916108cf565b820191906000526020600020905b8154815290600101906020018083116108b257829003601f168201915b505050505090806002018054600181600116156101000203166002900480601f01602080910402602001604051908101604052809291908181526020018280546001816001161561010002031660029004801561096d5780601f106109425761010080835404028352916020019161096d565b820191906000526020600020905b81548152906001019060200180831161095057829003601f168201915b5050505050908060030160009054906101000a900460ff16908060030160019054906101000a900460ff1690806004018054600181600116156101000203166002900480601f016020809104026020016040519081016040528092919081815260200182805460018160011615610100020316600290048015610a315780601f10610a0657610100808354040283529160200191610a31565b820191906000526020600020905b815481529060010190602001808311610a1457829003601f168201915b5050505050908060050160009054906101000a900460ff16908060050160019054906101000a900460ff1690806006015490806007015490508a565b610a75610c86565b60405180610140016040528060016000815460010191905081905581526020018b81526020018a81526020018960ff168152602001886001811115610ab657fe5b6001811115610ac157fe5b8152602001878152602001866001811115610ad857fe5b6001811115610ae357fe5b8152602001856008811115610af457fe5b6008811115610aff57fe5b8152602001848152602001838152509050806000806001548152602001908152602001600020600082015181600001556020820151816001019080519060200190610b4b929190610cfd565b506040820151816002019080519060200190610b68929190610cfd565b5060608201518160030160006101000a81548160ff021916908360ff16021790555060808201518160030160016101000a81548160ff02191690836001811115610bae57fe5b021790555060a0820151816004019080519060200190610bcf929190610cfd565b5060c08201518160050160006101000a81548160ff02191690836001811115610bf457fe5b021790555060e08201518160050160016101000a81548160ff02191690836008811115610c1d57fe5b0217905550610100820151816006015561012082015181600701559050507fcce97e9147605aa584b8dcf4cea5865244efb1f90a1593c329592797678d99356001546040518082815260200191505060405180910390a150505050505050505050565b60015481565b604051806101400160405280600081526020016060815260200160608152602001600060ff16815260200160006001811115610cbe57fe5b81526020016060815260200160006001811115610cd757fe5b815260200160006008811115610ce957fe5b815260200160008152602001600081525090565b828054600181600116156101000203166002900490600052602060002090601f016020900481019282601f10610d3e57805160ff1916838001178555610d6c565b82800160010185558215610d6c579182015b82811115610d6b578251825591602001919060010190610d50565b5b509050610d799190610d7d565b5090565b610d9f91905b80821115610d9b576000816000905550600101610d83565b5090565b9056fea165627a7a72305820ea9535d4df05d4d3b1a658f168416e648476bf3a118083459c9cc7d44041ecf80029",
  "source": "/**\r\n  * Characteric of a vehicle model in the market.\r\n  * This model only contain main infomation of vehicle model.\r\n  * Other specific information e.g. body number, color, year are stored in VehicleDetail.sol\r\n  */\r\n\r\npragma solidity ^0.5.0;\r\n\r\n// import 'openzeppelin-solidity/contracts/ownership/Ownable.sol';\r\n\r\ncontract VehicleModel {\r\n\r\n  enum Transmission {\r\n    Manual,\r\n    Automatic\r\n  }\r\n\r\n  enum FuelType {\r\n    Petrol,\r\n    Deisel\r\n  }\r\n\r\n  enum BodyStyle {\r\n    Convertible, //0\r\n    Coupe,       //1\r\n    Hatchback,   //2\r\n    Sedan,       //3\r\n    Station_Wagon, //4\r\n    RV_SUV,      //5\r\n    Ute,         //6\r\n    Van,         //7\r\n    Other        //8\r\n  }\r\n\r\n  struct ModelDetail {\r\n    uint id;\r\n    string brand;\r\n    string model;\r\n    uint8 numberOfSeats;\r\n    Transmission transmission;\r\n    string engineSize; // engine size e.g. 6 cylinder, 2496cc\r\n    FuelType fuelType; // fuel type - Pretol / Deisel\r\n    BodyStyle bodyStyle;\r\n    uint numberOfDoors;\r\n    uint modelYear;\r\n  }\r\n\r\n  /**\r\n   * @dev Mapping of unique id and Model Details\r\n   */\r\n  mapping(uint => ModelDetail) public models;\r\n\r\n  /**\r\n   * @dev generated unique id\r\n   */\r\n  uint public id;\r\n\r\n  /**\r\n   * @dev Model is added successfully\r\n   */\r\n  event ModelAdded(uint id);\r\n\r\n  /**\r\n   * @dev add a new vehicle model\r\n   */\r\n  function addModel(\r\n    string memory _brand,\r\n    string memory _model,\r\n    uint8 _numberOfSeats,\r\n    uint _transmission,\r\n    string memory _engineSize,\r\n    uint _fuelType,\r\n    uint _bodyStyle,\r\n    uint _numberOfDoors,\r\n    uint _modelYear\r\n    ) public {\r\n\r\n    ModelDetail memory detail = ModelDetail(\r\n      ++id,\r\n      _brand,\r\n      _model,\r\n      _numberOfSeats,\r\n      Transmission(_transmission),\r\n      _engineSize,\r\n      FuelType(_fuelType),\r\n      BodyStyle(_bodyStyle),\r\n      _numberOfDoors,\r\n      _modelYear\r\n    );\r\n\r\n    models[id] = detail;\r\n    emit ModelAdded(id);\r\n  }\r\n\r\n  function getModelYear(uint _modelId) public view returns (uint) {\r\n    require(_modelId > 0 && _modelId <= id, 'Invalid model id');\r\n    ModelDetail memory detail = models[_modelId];\r\n    return detail.modelYear;\r\n  }\r\n}",
  "sourcePath": "F:\\projects\\blockchain\\car_insurance\\contracts\\VehicleModel.sol",
  "compiler": {
    "name": "solc",
    "version": "0.5.8+commit.23d335f2.Emscripten.clang"
  },
  "schemaVersion": "3.0.11",
  "updatedAt": "2019-06-29T11:18:06.326Z",
  "devdoc": {
    "methods": {
      "addModel(string,string,uint8,uint256,string,uint256,uint256,uint256,uint256)": {
        "details": "add a new vehicle model\r"
      }
    }
  },
  "userdoc": {
    "methods": {}
  }
}