{
  "contractName": "Vehicle",
  "abi": [
    {
      "constant": true,
      "inputs": [
        {
          "name": "",
          "type": "string"
        }
      ],
      "name": "bodyNumberIndex",
      "outputs": [
        {
          "name": "",
          "type": "uint256"
        }
      ],
      "payable": false,
      "stateMutability": "view",
      "type": "function"
    },
    {
      "constant": true,
      "inputs": [
        {
          "name": "",
          "type": "uint256"
        },
        {
          "name": "",
          "type": "uint256"
        }
      ],
      "name": "modelIndex",
      "outputs": [
        {
          "name": "",
          "type": "uint256"
        }
      ],
      "payable": false,
      "stateMutability": "view",
      "type": "function"
    },
    {
      "constant": true,
      "inputs": [],
      "name": "vehicleUid",
      "outputs": [
        {
          "name": "",
          "type": "uint256"
        }
      ],
      "payable": false,
      "stateMutability": "view",
      "type": "function"
    },
    {
      "constant": true,
      "inputs": [
        {
          "name": "",
          "type": "uint256"
        }
      ],
      "name": "registeredModels",
      "outputs": [
        {
          "name": "registrationId",
          "type": "uint256"
        },
        {
          "name": "modelId",
          "type": "uint256"
        },
        {
          "name": "year",
          "type": "uint256"
        },
        {
          "name": "bodyNumber",
          "type": "string"
        },
        {
          "name": "engineNumber",
          "type": "string"
        },
        {
          "name": "color",
          "type": "string"
        },
        {
          "name": "additionalFeatures",
          "type": "string"
        },
        {
          "name": "kilometres",
          "type": "uint256"
        }
      ],
      "payable": false,
      "stateMutability": "view",
      "type": "function"
    },
    {
      "constant": true,
      "inputs": [
        {
          "name": "",
          "type": "string"
        }
      ],
      "name": "engineIndex",
      "outputs": [
        {
          "name": "",
          "type": "uint256"
        }
      ],
      "payable": false,
      "stateMutability": "view",
      "type": "function"
    },
    {
      "inputs": [
        {
          "name": "_vehicleModel",
          "type": "address"
        }
      ],
      "payable": false,
      "stateMutability": "nonpayable",
      "type": "constructor"
    },
    {
      "anonymous": false,
      "inputs": [
        {
          "indexed": false,
          "name": "vehicleUid",
          "type": "uint256"
        },
        {
          "indexed": false,
          "name": "bodyNumber",
          "type": "string"
        },
        {
          "indexed": false,
          "name": "engineNumber",
          "type": "string"
        },
        {
          "indexed": false,
          "name": "modelId",
          "type": "uint256"
        }
      ],
      "name": "VehicleRegistered",
      "type": "event"
    },
    {
      "constant": false,
      "inputs": [
        {
          "name": "_modelId",
          "type": "uint256"
        },
        {
          "name": "_year",
          "type": "uint256"
        },
        {
          "name": "_bodyNumber",
          "type": "string"
        },
        {
          "name": "_engineNumber",
          "type": "string"
        },
        {
          "name": "_color",
          "type": "string"
        },
        {
          "name": "_additionalFeatures",
          "type": "string"
        },
        {
          "name": "_kilometres",
          "type": "uint256"
        }
      ],
      "name": "register",
      "outputs": [],
      "payable": false,
      "stateMutability": "nonpayable",
      "type": "function"
    },
    {
      "constant": true,
      "inputs": [
        {
          "name": "_modelId",
          "type": "uint256"
        }
      ],
      "name": "getModelIndexCount",
      "outputs": [
        {
          "name": "count",
          "type": "uint256"
        }
      ],
      "payable": false,
      "stateMutability": "view",
      "type": "function"
    },
    {
      "constant": false,
      "inputs": [
        {
          "name": "_bodyNumber",
          "type": "string"
        },
        {
          "name": "_kilometres",
          "type": "uint256"
        }
      ],
      "name": "updateKilometres",
      "outputs": [],
      "payable": false,
      "stateMutability": "nonpayable",
      "type": "function"
    }
  ],
  "bytecode": "0x608060405234801561001057600080fd5b506040516020806118918339810180604052602081101561003057600080fd5b8101908080519060200190929190505050806000806101000a81548173ffffffffffffffffffffffffffffffffffffffff021916908373ffffffffffffffffffffffffffffffffffffffff16021790555050611800806100916000396000f3fe608060405234801561001057600080fd5b50600436106100885760003560e01c806396c365731161005b57806396c36573146102085780639de1a7ca1461040f578063d70a75fa146106ad578063fa3567fb1461077257610088565b80634385661a1461008d5780636a81e2dc1461015c5780638773067b146101a857806387e3a553146101c6575b600080fd5b610146600480360360208110156100a357600080fd5b81019080803590602001906401000000008111156100c057600080fd5b8201836020820111156100d257600080fd5b803590602001918460018302840111640100000000831117156100f457600080fd5b91908080601f016020809104026020016040519081016040528093929190818152602001838380828437600081840152601f19601f820116905080830192505050505050509192919290505050610841565b6040518082815260200191505060405180910390f35b6101926004803603604081101561017257600080fd5b81019080803590602001909291908035906020019092919050505061086f565b6040518082815260200191505060405180910390f35b6101b061089d565b6040518082815260200191505060405180910390f35b6101f2600480360360208110156101dc57600080fd5b81019080803590602001909291905050506108a3565b6040518082815260200191505060405180910390f35b6102346004803603602081101561021e57600080fd5b81019080803590602001909291905050506108c3565b604051808981526020018881526020018781526020018060200180602001806020018060200186815260200185810385528a818151815260200191508051906020019080838360005b8381101561029857808201518184015260208101905061027d565b50505050905090810190601f1680156102c55780820380516001836020036101000a031916815260200191505b50858103845289818151815260200191508051906020019080838360005b838110156102fe5780820151818401526020810190506102e3565b50505050905090810190601f16801561032b5780820380516001836020036101000a031916815260200191505b50858103835288818151815260200191508051906020019080838360005b83811015610364578082015181840152602081019050610349565b50505050905090810190601f1680156103915780820380516001836020036101000a031916815260200191505b50858103825287818151815260200191508051906020019080838360005b838110156103ca5780820151818401526020810190506103af565b50505050905090810190601f1680156103f75780820380516001836020036101000a031916815260200191505b509c5050505050505050505050505060405180910390f35b6106ab600480360360e081101561042557600080fd5b8101908080359060200190929190803590602001909291908035906020019064010000000081111561045657600080fd5b82018360208201111561046857600080fd5b8035906020019184600183028401116401000000008311171561048a57600080fd5b91908080601f016020809104026020016040519081016040528093929190818152602001838380828437600081840152601f19601f820116905080830192505050505050509192919290803590602001906401000000008111156104ed57600080fd5b8201836020820111156104ff57600080fd5b8035906020019184600183028401116401000000008311171561052157600080fd5b91908080601f016020809104026020016040519081016040528093929190818152602001838380828437600081840152601f19601f8201169050808301925050505050505091929192908035906020019064010000000081111561058457600080fd5b82018360208201111561059657600080fd5b803590602001918460018302840111640100000000831117156105b857600080fd5b91908080601f016020809104026020016040519081016040528093929190818152602001838380828437600081840152601f19601f8201169050808301925050505050505091929192908035906020019064010000000081111561061b57600080fd5b82018360208201111561062d57600080fd5b8035906020019184600183028401116401000000008311171561064f57600080fd5b91908080601f016020809104026020016040519081016040528093929190818152602001838380828437600081840152601f19601f82011690508083019250505050505050919291929080359060200190929190505050610b6b565b005b610770600480360360408110156106c357600080fd5b81019080803590602001906401000000008111156106e057600080fd5b8201836020820111156106f257600080fd5b8035906020019184600183028401116401000000008311171561071457600080fd5b91908080601f016020809104026020016040519081016040528093929190818152602001838380828437600081840152601f19601f82011690508083019250505050505050919291929080359060200190929190505050611157565b005b61082b6004803603602081101561078857600080fd5b81019080803590602001906401000000008111156107a557600080fd5b8201836020820111156107b757600080fd5b803590602001918460018302840111640100000000831117156107d957600080fd5b91908080601f016020809104026020016040519081016040528093929190818152602001838380828437600081840152601f19601f820116905080830192505050505050509192919290505050611642565b6040518082815260200191505060405180910390f35b6003818051602081018201805184825260208301602085012081835280955050505050506000915090505481565b6005602052816000526040600020818154811061088857fe5b90600052602060002001600091509150505481565b60025481565b600060056000838152602001908152602001600020805490509050919050565b6001602052806000526040600020600091509050806000015490806001015490806002015490806003018054600181600116156101000203166002900480601f0160208091040260200160405190810160405280929190818152602001828054600181600116156101000203166002900480156109815780601f1061095657610100808354040283529160200191610981565b820191906000526020600020905b81548152906001019060200180831161096457829003601f168201915b505050505090806004018054600181600116156101000203166002900480601f016020809104026020016040519081016040528092919081815260200182805460018160011615610100020316600290048015610a1f5780601f106109f457610100808354040283529160200191610a1f565b820191906000526020600020905b815481529060010190602001808311610a0257829003601f168201915b505050505090806005018054600181600116156101000203166002900480601f016020809104026020016040519081016040528092919081815260200182805460018160011615610100020316600290048015610abd5780601f10610a9257610100808354040283529160200191610abd565b820191906000526020600020905b815481529060010190602001808311610aa057829003601f168201915b505050505090806006018054600181600116156101000203166002900480601f016020809104026020016040519081016040528092919081815260200182805460018160011615610100020316600290048015610b5b5780601f10610b3057610100808354040283529160200191610b5b565b820191906000526020600020905b815481529060010190602001808311610b3e57829003601f168201915b5050505050908060070154905088565b600087118015610c1c57506000809054906101000a900473ffffffffffffffffffffffffffffffffffffffff1673ffffffffffffffffffffffffffffffffffffffff1663af640d0f6040518163ffffffff1660e01b815260040160206040518083038186803b158015610bdd57600080fd5b505afa158015610bf1573d6000803e3d6000fd5b505050506040513d6020811015610c0757600080fd5b81019080805190602001909291905050508711155b610c8e576040517f08c379a00000000000000000000000000000000000000000000000000000000081526004018080602001828103825260108152602001807f496e76616c6964206d6f64656c2069640000000000000000000000000000000081525060200191505060405180910390fd5b60006003866040518082805190602001908083835b60208310610cc65780518252602082019150602081019050602083039250610ca3565b6001836020036101000a03801982511681845116808217855250505050505090500191505090815260200160405180910390205414610d50576040517f08c379a00000000000000000000000000000000000000000000000000000000081526004018080602001828103825260218152602001806117b46021913960400191505060405180910390fd5b60006004856040518082805190602001908083835b60208310610d885780518252602082019150602081019050602083039250610d65565b6001836020036101000a03801982511681845116808217855250505050505090500191505090815260200160405180910390205414610e12576040517f08c379a000000000000000000000000000000000000000000000000000000000815260040180806020018281038252602381526020018061175b6023913960400191505060405180910390fd5b6002600081548092919060010191905055506040518061010001604052806002548152602001888152602001878152602001868152602001858152602001848152602001838152602001828152506001600060025481526020019081526020016000206000820151816000015560208201518160010155604082015181600201556060820151816003019080519060200190610eaf929190611670565b506080820151816004019080519060200190610ecc929190611670565b5060a0820151816005019080519060200190610ee9929190611670565b5060c0820151816006019080519060200190610f06929190611670565b5060e082015181600701559050506002546003866040518082805190602001908083835b60208310610f4d5780518252602082019150602081019050602083039250610f2a565b6001836020036101000a0380198251168184511680821785525050505050509050019150509081526020016040518091039020819055506002546004856040518082805190602001908083835b60208310610fbd5780518252602082019150602081019050602083039250610f9a565b6001836020036101000a0380198251168184511680821785525050505050509050019150509081526020016040518091039020819055506005600088815260200190815260200160002060025490806001815401808255809150509060018203906000526020600020016000909192909190915055507f5afe49e9edd2fc938761df05cab31bf6000f0a5c894e64c2c6a380634962b95360025486868a604051808581526020018060200180602001848152602001838103835286818151815260200191508051906020019080838360005b838110156110aa57808201518184015260208101905061108f565b50505050905090810190601f1680156110d75780820380516001836020036101000a031916815260200191505b50838103825285818151815260200191508051906020019080838360005b838110156111105780820151818401526020810190506110f5565b50505050905090810190601f16801561113d5780820380516001836020036101000a031916815260200191505b50965050505050505060405180910390a150505050505050565b60006003836040518082805190602001908083835b6020831061118f578051825260208201915060208101905060208303925061116c565b6001836020036101000a03801982511681845116808217855250505050505090500191505090815260200160405180910390205490506000811180156111d757506002548111155b611249576040517f08c379a000000000000000000000000000000000000000000000000000000000815260040180806020018281038252601b8152602001807f496e76616c69642076656869636c6520626f6479206e756d626572000000000081525060200191505060405180910390fd5b6112516116f0565b6001600083815260200190815260200160002060405180610100016040529081600082015481526020016001820154815260200160028201548152602001600382018054600181600116156101000203166002900480601f0160208091040260200160405190810160405280929190818152602001828054600181600116156101000203166002900480156113275780601f106112fc57610100808354040283529160200191611327565b820191906000526020600020905b81548152906001019060200180831161130a57829003601f168201915b50505050508152602001600482018054600181600116156101000203166002900480601f0160208091040260200160405190810160405280929190818152602001828054600181600116156101000203166002900480156113c95780601f1061139e576101008083540402835291602001916113c9565b820191906000526020600020905b8154815290600101906020018083116113ac57829003601f168201915b50505050508152602001600582018054600181600116156101000203166002900480601f01602080910402602001604051908101604052809291908181526020018280546001816001161561010002031660029004801561146b5780601f106114405761010080835404028352916020019161146b565b820191906000526020600020905b81548152906001019060200180831161144e57829003601f168201915b50505050508152602001600682018054600181600116156101000203166002900480601f01602080910402602001604051908101604052809291908181526020018280546001816001161561010002031660029004801561150d5780601f106114e25761010080835404028352916020019161150d565b820191906000526020600020905b8154815290600101906020018083116114f057829003601f168201915b505050505081526020016007820154815250509050828160e00151111561157f576040517f08c379a000000000000000000000000000000000000000000000000000000000815260040180806020018281038252603681526020018061177e6036913960400191505060405180910390fd5b828160e0018181525050806001600084815260200190815260200160002060008201518160000155602082015181600101556040820151816002015560608201518160030190805190602001906115d7929190611670565b5060808201518160040190805190602001906115f4929190611670565b5060a0820151816005019080519060200190611611929190611670565b5060c082015181600601908051906020019061162e929190611670565b5060e0820151816007015590505050505050565b6004818051602081018201805184825260208301602085012081835280955050505050506000915090505481565b828054600181600116156101000203166002900490600052602060002090601f016020900481019282601f106116b157805160ff19168380011785556116df565b828001600101855582156116df579182015b828111156116de5782518255916020019190600101906116c3565b5b5090506116ec9190611735565b5090565b60405180610100016040528060008152602001600081526020016000815260200160608152602001606081526020016060815260200160608152602001600081525090565b61175791905b8082111561175357600081600090555060010161173b565b5090565b9056fe456e67696e65206e756d62657220697320616c726561647920726567697374657265644e6577206b696c6f6d65747265732063616e6e6f74206265206c657373207468616e20746865206578697374696e672076616c75652e426f6479206e756d62657220697320616c72656164792072656769737465726564a165627a7a723058209e27fc0e07dd6187ebd6bb4da47a44c95563323a823d0ec7be7515cff66a76300029",
  "source": "/**\r\n * Vehicle registration information.\r\n * When a vehicle is produced it will be assigned number to the important part\r\n * for identification purpose.\r\n * This entity contain the information of vehicles' identification\r\n * e.g. manufactured year, body number, engine number\r\n */\r\n\r\n pragma solidity ^0.5.0;\r\n\r\nimport './VehicleModel.sol';\r\n\r\n contract Vehicle {\r\n\r\n   struct VehicleDetail {\r\n     uint registrationId;\r\n     uint modelId;\r\n     uint year;\r\n     string bodyNumber;\r\n     string engineNumber;\r\n     string color;\r\n     string additionalFeatures;\r\n     uint kilometres;\r\n   }\r\n\r\n  VehicleModel vehicleModel;\r\n\r\n  /**\r\n   * @dev Mapping between unique id and Vehicle Detail\r\n   */\r\n  mapping(uint => VehicleDetail) public registeredModels;\r\n  uint public vehicleUid;\r\n\r\n  /**\r\n   * @dev Mapping between body number and Vehicle unique id\r\n   */\r\n  mapping(string => uint) public bodyNumberIndex;\r\n\r\n  /**\r\n   * @dev Mapping between engine number and Vehicle unique id\r\n   */\r\n  mapping(string => uint) public engineIndex;\r\n\r\n  /**\r\n   * @dev Mapping between model id and list of Vehicle unique id\r\n   */\r\n  mapping(uint => uint[]) public modelIndex;\r\n\r\n  /**\r\n   * @dev Vehicle is registered successfully\r\n   */\r\n  event VehicleRegistered(uint vehicleUid, string bodyNumber, string engineNumber, uint modelId);\r\n\r\n  constructor(VehicleModel _vehicleModel) public {\r\n    vehicleModel = _vehicleModel;\r\n  }\r\n\r\n  /**\r\n   * @dev Register a vehicle\r\n   * @param _modelId the model id\r\n   * @param _year the year that this vehicle is registered\r\n   * @param _bodyNumber the body number of the vehicle\r\n   * @param _engineNumber engine number of the vehicle\r\n   * @param _color color\r\n   * @param _additionalFeatures additional feature. Each feature should be separated by a comma\r\n   * @param _kilometres kilometres the vehicle has run\r\n   *\r\n   * Emits an `VehicleRegistered` event.\r\n   */\r\n  function register(\r\n    uint _modelId,\r\n    uint _year,\r\n    string memory _bodyNumber,\r\n    string memory _engineNumber,\r\n    string memory _color,\r\n    string memory _additionalFeatures,\r\n    uint _kilometres\r\n  ) public {\r\n\r\n    // validate model id\r\n    require(_modelId > 0 && _modelId <= vehicleModel.id(), 'Invalid model id');\r\n\r\n    // validate body number is never registered\r\n    require(bodyNumberIndex[_bodyNumber] == 0, 'Body number is already registered');\r\n\r\n    // validate engine number is never registered\r\n    require(engineIndex[_engineNumber] == 0, 'Engine number is already registered');\r\n\r\n    vehicleUid++;\r\n    registeredModels[vehicleUid] = VehicleDetail (\r\n     vehicleUid,\r\n     _modelId,\r\n     _year,\r\n     _bodyNumber,\r\n     _engineNumber,\r\n     _color,\r\n     _additionalFeatures,\r\n     _kilometres\r\n    );\r\n\r\n    bodyNumberIndex[_bodyNumber] = vehicleUid;\r\n    engineIndex[_engineNumber] = vehicleUid;\r\n    modelIndex[_modelId].push(vehicleUid);\r\n\r\n    emit VehicleRegistered(vehicleUid, _bodyNumber, _engineNumber, _modelId);\r\n  }\r\n\r\n  /**\r\n   * @dev Get count of vehicles of a specified model\r\n   * @param _modelId the model id\r\n   */\r\n  function getModelIndexCount(uint _modelId) public view returns(uint count) {\r\n    return modelIndex[_modelId].length;\r\n  }\r\n\r\n  /**\r\n   * @dev Update the kilometres of the specified vehicle\r\n   * @param _bodyNumber the body number\r\n   * @param _kilometres kilometres\r\n   */\r\n  function updateKilometres(string memory _bodyNumber, uint _kilometres) public {\r\n    uint vId = bodyNumberIndex[_bodyNumber];\r\n    require(vId > 0 && vId <= vehicleUid, \"Invalid vehicle body number\");\r\n    VehicleDetail memory vehicleDetail = registeredModels[vId];\r\n    require(vehicleDetail.kilometres <= _kilometres, \"New kilometres cannot be less than the existing value.\");\r\n    vehicleDetail.kilometres = _kilometres;\r\n    registeredModels[vId] = vehicleDetail;\r\n  }\r\n }",
  "sourcePath": "F:/projects/blockchain/car_insurance/contracts/Vehicle.sol",
  "compiler": {
    "name": "solc",
    "version": "0.5.8+commit.23d335f2.Emscripten.clang"
  },
  "schemaVersion": "3.0.11",
  "updatedAt": "2019-06-29T11:18:06.332Z",
  "devdoc": {
    "methods": {
      "getModelIndexCount(uint256)": {
        "details": "Get count of vehicles of a specified model\r",
        "params": {
          "_modelId": "the model id\r"
        }
      },
      "register(uint256,uint256,string,string,string,string,uint256)": {
        "details": "Register a vehicle\r",
        "params": {
          "_additionalFeatures": "additional feature. Each feature should be separated by a comma\r",
          "_bodyNumber": "the body number of the vehicle\r",
          "_color": "color\r",
          "_engineNumber": "engine number of the vehicle\r",
          "_kilometres": "kilometres the vehicle has run\r    * Emits an `VehicleRegistered` event.\r",
          "_modelId": "the model id\r",
          "_year": "the year that this vehicle is registered\r"
        }
      },
      "updateKilometres(string,uint256)": {
        "details": "Update the kilometres of the specified vehicle\r",
        "params": {
          "_bodyNumber": "the body number\r",
          "_kilometres": "kilometres\r"
        }
      }
    }
  },
  "userdoc": {
    "methods": {}
  }
}