{
  "contractName": "VehicleModel",
  "abi": [
    {
      "constant": true,
      "inputs": [
        {
          "name": "",
          "type": "uint256"
        }
      ],
      "name": "models",
      "outputs": [
        {
          "name": "id",
          "type": "uint256"
        },
        {
          "name": "brand",
          "type": "string"
        },
        {
          "name": "model",
          "type": "string"
        },
        {
          "name": "numberOfSeats",
          "type": "uint8"
        },
        {
          "name": "transmission",
          "type": "uint8"
        },
        {
          "name": "engineSize",
          "type": "string"
        },
        {
          "name": "fuelType",
          "type": "uint8"
        },
        {
          "name": "bodyStyle",
          "type": "uint8"
        },
        {
          "name": "numberOfDoors",
          "type": "uint256"
        },
        {
          "name": "modelYear",
          "type": "uint256"
        }
      ],
      "payable": false,
      "stateMutability": "view",
      "type": "function"
    },
    {
      "constant": true,
      "inputs": [],
      "name": "id",
      "outputs": [
        {
          "name": "",
          "type": "uint256"
        }
      ],
      "payable": false,
      "stateMutability": "view",
      "type": "function"
    },
    {
      "anonymous": false,
      "inputs": [
        {
          "indexed": false,
          "name": "id",
          "type": "uint256"
        }
      ],
      "name": "ModelAdded",
      "type": "event"
    },
    {
      "constant": false,
      "inputs": [
        {
          "name": "_brand",
          "type": "string"
        },
        {
          "name": "_model",
          "type": "string"
        },
        {
          "name": "_numberOfSeats",
          "type": "uint8"
        },
        {
          "name": "_transmission",
          "type": "uint256"
        },
        {
          "name": "_engineSize",
          "type": "string"
        },
        {
          "name": "_fuelType",
          "type": "uint256"
        },
        {
          "name": "_bodyStyle",
          "type": "uint256"
        },
        {
          "name": "_numberOfDoors",
          "type": "uint256"
        },
        {
          "name": "_modelYear",
          "type": "uint256"
        }
      ],
      "name": "addModel",
      "outputs": [],
      "payable": false,
      "stateMutability": "nonpayable",
      "type": "function"
    }
  ],
  "bytecode": "0x608060405234801561001057600080fd5b50610a1e806100206000396000f3fe608060405234801561001057600080fd5b50600436106100415760003560e01c80636a030ca9146100465780638ff449f914610226578063af640d0f1461044f575b600080fd5b6100726004803603602081101561005c57600080fd5b810190808035906020019092919050505061046d565b604051808b815260200180602001806020018a60ff1660ff16815260200189600181111561009c57fe5b60ff168152602001806020018860018111156100b457fe5b60ff1681526020018760088111156100c857fe5b60ff16815260200186815260200185815260200184810384528d818151815260200191508051906020019080838360005b838110156101145780820151818401526020810190506100f9565b50505050905090810190601f1680156101415780820380516001836020036101000a031916815260200191505b5084810383528c818151815260200191508051906020019080838360005b8381101561017a57808201518184015260208101905061015f565b50505050905090810190601f1680156101a75780820380516001836020036101000a031916815260200191505b50848103825289818151815260200191508051906020019080838360005b838110156101e05780820151818401526020810190506101c5565b50505050905090810190601f16801561020d5780820380516001836020036101000a031916815260200191505b509d505050505050505050505050505060405180910390f35b61044d600480360361012081101561023d57600080fd5b810190808035906020019064010000000081111561025a57600080fd5b82018360208201111561026c57600080fd5b8035906020019184600183028401116401000000008311171561028e57600080fd5b91908080601f016020809104026020016040519081016040528093929190818152602001838380828437600081840152601f19601f820116905080830192505050505050509192919290803590602001906401000000008111156102f157600080fd5b82018360208201111561030357600080fd5b8035906020019184600183028401116401000000008311171561032557600080fd5b91908080601f016020809104026020016040519081016040528093929190818152602001838380828437600081840152601f19601f820116905080830192505050505050509192919290803560ff169060200190929190803590602001909291908035906020019064010000000081111561039f57600080fd5b8201836020820111156103b157600080fd5b803590602001918460018302840111640100000000831117156103d357600080fd5b91908080601f016020809104026020016040519081016040528093929190818152602001838380828437600081840152601f19601f820116905080830192505050505050509192919290803590602001909291908035906020019092919080359060200190929190803590602001909291905050506106bd565b005b6104576108d0565b6040518082815260200191505060405180910390f35b6000602052806000526040600020600091509050806000015490806001018054600181600116156101000203166002900480601f01602080910402602001604051908101604052809291908181526020018280546001816001161561010002031660029004801561051f5780601f106104f45761010080835404028352916020019161051f565b820191906000526020600020905b81548152906001019060200180831161050257829003601f168201915b505050505090806002018054600181600116156101000203166002900480601f0160208091040260200160405190810160405280929190818152602001828054600181600116156101000203166002900480156105bd5780601f10610592576101008083540402835291602001916105bd565b820191906000526020600020905b8154815290600101906020018083116105a057829003601f168201915b5050505050908060030160009054906101000a900460ff16908060030160019054906101000a900460ff1690806004018054600181600116156101000203166002900480601f0160208091040260200160405190810160405280929190818152602001828054600181600116156101000203166002900480156106815780601f1061065657610100808354040283529160200191610681565b820191906000526020600020905b81548152906001019060200180831161066457829003601f168201915b5050505050908060050160009054906101000a900460ff16908060050160019054906101000a900460ff1690806006015490806007015490508a565b6106c56108d6565b60405180610140016040528060016000815460010191905081905581526020018b81526020018a81526020018960ff16815260200188600181111561070657fe5b600181111561071157fe5b815260200187815260200186600181111561072857fe5b600181111561073357fe5b815260200185600881111561074457fe5b600881111561074f57fe5b815260200184815260200183815250905080600080600154815260200190815260200160002060008201518160000155602082015181600101908051906020019061079b92919061094d565b5060408201518160020190805190602001906107b892919061094d565b5060608201518160030160006101000a81548160ff021916908360ff16021790555060808201518160030160016101000a81548160ff021916908360018111156107fe57fe5b021790555060a082015181600401908051906020019061081f92919061094d565b5060c08201518160050160006101000a81548160ff0219169083600181111561084457fe5b021790555060e08201518160050160016101000a81548160ff0219169083600881111561086d57fe5b0217905550610100820151816006015561012082015181600701559050507fcce97e9147605aa584b8dcf4cea5865244efb1f90a1593c329592797678d99356001546040518082815260200191505060405180910390a150505050505050505050565b60015481565b604051806101400160405280600081526020016060815260200160608152602001600060ff1681526020016000600181111561090e57fe5b8152602001606081526020016000600181111561092757fe5b81526020016000600881111561093957fe5b815260200160008152602001600081525090565b828054600181600116156101000203166002900490600052602060002090601f016020900481019282601f1061098e57805160ff19168380011785556109bc565b828001600101855582156109bc579182015b828111156109bb5782518255916020019190600101906109a0565b5b5090506109c991906109cd565b5090565b6109ef91905b808211156109eb5760008160009055506001016109d3565b5090565b9056fea165627a7a7230582032d0dfd2d5f2370e715c44c99891ded9aaa3f6549ad5f4e8b4810baf9a4a360e0029",
  "source": "/**\r\n  * Characteric of a vehicle model in the market.\r\n  * This model only contain main infomation of vehicle model.\r\n  * Other specific information e.g. body number, color, year are stored in VehicleDetail.sol\r\n  */\r\n\r\npragma solidity ^0.5.0;\r\n\r\n// import 'openzeppelin-solidity/contracts/ownership/Ownable.sol';\r\n\r\ncontract VehicleModel {\r\n\r\n  enum Transmission {\r\n    Manual,\r\n    Automatic\r\n  }\r\n\r\n  enum FuelType {\r\n    Pretol,\r\n    Deisel\r\n  }\r\n\r\n  enum BodyStyle {\r\n    Convertible, //0\r\n    Coupe,       //1\r\n    Hatchback,   //2\r\n    Sedan,       //3\r\n    Station_Wagon, //4\r\n    RV_SUV,      //5\r\n    Ute,         //6\r\n    Van,         //7\r\n    Other        //8\r\n  }\r\n\r\n  struct ModelDetail {\r\n    uint id;\r\n    string brand;\r\n    string model;\r\n    uint8 numberOfSeats;\r\n    Transmission transmission;\r\n    string engineSize; // engine size e.g. 6 cylinder, 2496cc\r\n    FuelType fuelType; // fuel type - Pretol / Deisel\r\n    BodyStyle bodyStyle;\r\n    uint numberOfDoors;\r\n    uint modelYear;\r\n  }\r\n\r\n  /**\r\n   * @dev Mapping of unique id and Model Details\r\n   */\r\n  mapping(uint => ModelDetail) public models;\r\n\r\n  /**\r\n   * @dev generated unique id\r\n   */\r\n  uint public id;\r\n\r\n  /**\r\n   * @dev Model is added successfully\r\n   */\r\n  event ModelAdded(uint id);\r\n\r\n  /**\r\n   * @dev add a new vehicle model\r\n   */\r\n  function addModel(\r\n    string memory _brand,\r\n    string memory _model,\r\n    uint8 _numberOfSeats,\r\n    uint _transmission,\r\n    string memory _engineSize,\r\n    uint _fuelType,\r\n    uint _bodyStyle,\r\n    uint _numberOfDoors,\r\n    uint _modelYear\r\n    ) public {\r\n\r\n    ModelDetail memory detail = ModelDetail(\r\n      ++id,\r\n      _brand,\r\n      _model,\r\n      _numberOfSeats,\r\n      Transmission(_transmission),\r\n      _engineSize,\r\n      FuelType(_fuelType),\r\n      BodyStyle(_bodyStyle),\r\n      _numberOfDoors,\r\n      _modelYear\r\n    );\r\n\r\n    models[id] = detail;\r\n    emit ModelAdded(id);\r\n  }\r\n}",
  "sourcePath": "F:/projects/blockchain/car_insurance/contracts/VehicleModel.sol",
  "compiler": {
    "name": "solc",
    "version": "0.5.8+commit.23d335f2.Emscripten.clang"
  },
  "schemaVersion": "3.0.11",
  "updatedAt": "2019-06-26T12:29:12.003Z",
  "devdoc": {
    "methods": {
      "addModel(string,string,uint8,uint256,string,uint256,uint256,uint256,uint256)": {
        "details": "add a new vehicle model\r"
      }
    }
  },
  "userdoc": {
    "methods": {}
  }
}