{
  "contractName": "Vehicle",
  "abi": [
    {
      "constant": true,
      "inputs": [
        {
          "name": "",
          "type": "string"
        }
      ],
      "name": "bodyNumberIndex",
      "outputs": [
        {
          "name": "",
          "type": "uint256"
        }
      ],
      "payable": false,
      "stateMutability": "view",
      "type": "function"
    },
    {
      "constant": true,
      "inputs": [
        {
          "name": "",
          "type": "uint256"
        },
        {
          "name": "",
          "type": "uint256"
        }
      ],
      "name": "modelIndex",
      "outputs": [
        {
          "name": "",
          "type": "uint256"
        }
      ],
      "payable": false,
      "stateMutability": "view",
      "type": "function"
    },
    {
      "constant": true,
      "inputs": [],
      "name": "vehicleUid",
      "outputs": [
        {
          "name": "",
          "type": "uint256"
        }
      ],
      "payable": false,
      "stateMutability": "view",
      "type": "function"
    },
    {
      "constant": true,
      "inputs": [
        {
          "name": "",
          "type": "uint256"
        }
      ],
      "name": "registeredModels",
      "outputs": [
        {
          "name": "registrationId",
          "type": "uint256"
        },
        {
          "name": "modelId",
          "type": "uint256"
        },
        {
          "name": "year",
          "type": "uint256"
        },
        {
          "name": "bodyNumber",
          "type": "string"
        },
        {
          "name": "engineNumber",
          "type": "string"
        },
        {
          "name": "color",
          "type": "string"
        },
        {
          "name": "additionalFeatures",
          "type": "string"
        },
        {
          "name": "kilometres",
          "type": "uint256"
        }
      ],
      "payable": false,
      "stateMutability": "view",
      "type": "function"
    },
    {
      "constant": true,
      "inputs": [
        {
          "name": "",
          "type": "string"
        }
      ],
      "name": "engineIndex",
      "outputs": [
        {
          "name": "",
          "type": "uint256"
        }
      ],
      "payable": false,
      "stateMutability": "view",
      "type": "function"
    },
    {
      "anonymous": false,
      "inputs": [
        {
          "indexed": false,
          "name": "vehicleUid",
          "type": "uint256"
        },
        {
          "indexed": false,
          "name": "bodyNumber",
          "type": "string"
        },
        {
          "indexed": false,
          "name": "engineNumber",
          "type": "string"
        },
        {
          "indexed": false,
          "name": "modelId",
          "type": "uint256"
        }
      ],
      "name": "VehicleRegistered",
      "type": "event"
    },
    {
      "constant": false,
      "inputs": [
        {
          "name": "_modelId",
          "type": "uint256"
        },
        {
          "name": "_year",
          "type": "uint256"
        },
        {
          "name": "_bodyNumber",
          "type": "string"
        },
        {
          "name": "_engineNumber",
          "type": "string"
        },
        {
          "name": "_color",
          "type": "string"
        },
        {
          "name": "_additionalFeatures",
          "type": "string"
        },
        {
          "name": "_kilometres",
          "type": "uint256"
        }
      ],
      "name": "menufacturingRegister",
      "outputs": [],
      "payable": false,
      "stateMutability": "nonpayable",
      "type": "function"
    },
    {
      "constant": false,
      "inputs": [
        {
          "name": "_bodyNumber",
          "type": "string"
        },
        {
          "name": "_kilometres",
          "type": "uint256"
        }
      ],
      "name": "updateKilometres",
      "outputs": [],
      "payable": false,
      "stateMutability": "nonpayable",
      "type": "function"
    }
  ],
  "bytecode": "0x608060405234801561001057600080fd5b5061136f806100206000396000f3fe608060405234801561001057600080fd5b506004361061007d5760003560e01c806396c365731161005b57806396c36573146101bb578063a97ec420146103c2578063d70a75fa14610660578063fa3567fb146107255761007d565b80634385661a146100825780636a81e2dc146101515780638773067b1461019d575b600080fd5b61013b6004803603602081101561009857600080fd5b81019080803590602001906401000000008111156100b557600080fd5b8201836020820111156100c757600080fd5b803590602001918460018302840111640100000000831117156100e957600080fd5b91908080601f016020809104026020016040519081016040528093929190818152602001838380828437600081840152601f19601f8201169050808301925050505050505091929192905050506107f4565b6040518082815260200191505060405180910390f35b6101876004803603604081101561016757600080fd5b810190808035906020019092919080359060200190929190505050610822565b6040518082815260200191505060405180910390f35b6101a5610850565b6040518082815260200191505060405180910390f35b6101e7600480360360208110156101d157600080fd5b8101908080359060200190929190505050610856565b604051808981526020018881526020018781526020018060200180602001806020018060200186815260200185810385528a818151815260200191508051906020019080838360005b8381101561024b578082015181840152602081019050610230565b50505050905090810190601f1680156102785780820380516001836020036101000a031916815260200191505b50858103845289818151815260200191508051906020019080838360005b838110156102b1578082015181840152602081019050610296565b50505050905090810190601f1680156102de5780820380516001836020036101000a031916815260200191505b50858103835288818151815260200191508051906020019080838360005b838110156103175780820151818401526020810190506102fc565b50505050905090810190601f1680156103445780820380516001836020036101000a031916815260200191505b50858103825287818151815260200191508051906020019080838360005b8381101561037d578082015181840152602081019050610362565b50505050905090810190601f1680156103aa5780820380516001836020036101000a031916815260200191505b509c5050505050505050505050505060405180910390f35b61065e600480360360e08110156103d857600080fd5b8101908080359060200190929190803590602001909291908035906020019064010000000081111561040957600080fd5b82018360208201111561041b57600080fd5b8035906020019184600183028401116401000000008311171561043d57600080fd5b91908080601f016020809104026020016040519081016040528093929190818152602001838380828437600081840152601f19601f820116905080830192505050505050509192919290803590602001906401000000008111156104a057600080fd5b8201836020820111156104b257600080fd5b803590602001918460018302840111640100000000831117156104d457600080fd5b91908080601f016020809104026020016040519081016040528093929190818152602001838380828437600081840152601f19601f8201169050808301925050505050505091929192908035906020019064010000000081111561053757600080fd5b82018360208201111561054957600080fd5b8035906020019184600183028401116401000000008311171561056b57600080fd5b91908080601f016020809104026020016040519081016040528093929190818152602001838380828437600081840152601f19601f820116905080830192505050505050509192919290803590602001906401000000008111156105ce57600080fd5b8201836020820111156105e057600080fd5b8035906020019184600183028401116401000000008311171561060257600080fd5b91908080601f016020809104026020016040519081016040528093929190818152602001838380828437600081840152601f19601f82011690508083019250505050505050919291929080359060200190929190505050610afe565b005b6107236004803603604081101561067657600080fd5b810190808035906020019064010000000081111561069357600080fd5b8201836020820111156106a557600080fd5b803590602001918460018302840111640100000000831117156106c757600080fd5b91908080601f016020809104026020016040519081016040528093929190818152602001838380828437600081840152601f19601f82011690508083019250505050505050919291929080359060200190929190505050610e42565b005b6107de6004803603602081101561073b57600080fd5b810190808035906020019064010000000081111561075857600080fd5b82018360208201111561076a57600080fd5b8035906020019184600183028401116401000000008311171561078c57600080fd5b91908080601f016020809104026020016040519081016040528093929190818152602001838380828437600081840152601f19601f8201169050808301925050505050505091929192905050506111f5565b6040518082815260200191505060405180910390f35b6002818051602081018201805184825260208301602085012081835280955050505050506000915090505481565b6004602052816000526040600020818154811061083b57fe5b90600052602060002001600091509150505481565b60015481565b6000602052806000526040600020600091509050806000015490806001015490806002015490806003018054600181600116156101000203166002900480601f0160208091040260200160405190810160405280929190818152602001828054600181600116156101000203166002900480156109145780601f106108e957610100808354040283529160200191610914565b820191906000526020600020905b8154815290600101906020018083116108f757829003601f168201915b505050505090806004018054600181600116156101000203166002900480601f0160208091040260200160405190810160405280929190818152602001828054600181600116156101000203166002900480156109b25780601f10610987576101008083540402835291602001916109b2565b820191906000526020600020905b81548152906001019060200180831161099557829003601f168201915b505050505090806005018054600181600116156101000203166002900480601f016020809104026020016040519081016040528092919081815260200182805460018160011615610100020316600290048015610a505780601f10610a2557610100808354040283529160200191610a50565b820191906000526020600020905b815481529060010190602001808311610a3357829003601f168201915b505050505090806006018054600181600116156101000203166002900480601f016020809104026020016040519081016040528092919081815260200182805460018160011615610100020316600290048015610aee5780601f10610ac357610100808354040283529160200191610aee565b820191906000526020600020905b815481529060010190602001808311610ad157829003601f168201915b5050505050908060070154905088565b60016000815480929190600101919050555060405180610100016040528060015481526020018881526020018781526020018681526020018581526020018481526020018381526020018281525060008060015481526020019081526020016000206000820151816000015560208201518160010155604082015181600201556060820151816003019080519060200190610b9a929190611223565b506080820151816004019080519060200190610bb7929190611223565b5060a0820151816005019080519060200190610bd4929190611223565b5060c0820151816006019080519060200190610bf1929190611223565b5060e082015181600701559050506001546002866040518082805190602001908083835b60208310610c385780518252602082019150602081019050602083039250610c15565b6001836020036101000a0380198251168184511680821785525050505050509050019150509081526020016040518091039020819055506001546003856040518082805190602001908083835b60208310610ca85780518252602082019150602081019050602083039250610c85565b6001836020036101000a0380198251168184511680821785525050505050509050019150509081526020016040518091039020819055506004600088815260200190815260200160002060015490806001815401808255809150509060018203906000526020600020016000909192909190915055507f5afe49e9edd2fc938761df05cab31bf6000f0a5c894e64c2c6a380634962b95360015486868a604051808581526020018060200180602001848152602001838103835286818151815260200191508051906020019080838360005b83811015610d95578082015181840152602081019050610d7a565b50505050905090810190601f168015610dc25780820380516001836020036101000a031916815260200191505b50838103825285818151815260200191508051906020019080838360005b83811015610dfb578082015181840152602081019050610de0565b50505050905090810190601f168015610e285780820380516001836020036101000a031916815260200191505b50965050505050505060405180910390a150505050505050565b60006002836040518082805190602001908083835b60208310610e7a5780518252602082019150602081019050602083039250610e57565b6001836020036101000a0380198251168184511680821785525050505050509050019150509081526020016040518091039020549050610eb86112a3565b60008083815260200190815260200160002060405180610100016040529081600082015481526020016001820154815260200160028201548152602001600382018054600181600116156101000203166002900480601f016020809104026020016040519081016040528092919081815260200182805460018160011615610100020316600290048015610f8d5780601f10610f6257610100808354040283529160200191610f8d565b820191906000526020600020905b815481529060010190602001808311610f7057829003601f168201915b50505050508152602001600482018054600181600116156101000203166002900480601f01602080910402602001604051908101604052809291908181526020018280546001816001161561010002031660029004801561102f5780601f106110045761010080835404028352916020019161102f565b820191906000526020600020905b81548152906001019060200180831161101257829003601f168201915b50505050508152602001600582018054600181600116156101000203166002900480601f0160208091040260200160405190810160405280929190818152602001828054600181600116156101000203166002900480156110d15780601f106110a6576101008083540402835291602001916110d1565b820191906000526020600020905b8154815290600101906020018083116110b457829003601f168201915b50505050508152602001600682018054600181600116156101000203166002900480601f0160208091040260200160405190810160405280929190818152602001828054600181600116156101000203166002900480156111735780601f1061114857610100808354040283529160200191611173565b820191906000526020600020905b81548152906001019060200180831161115657829003601f168201915b505050505081526020016007820154815250509050828160e0015111156111e5576040517f08c379a000000000000000000000000000000000000000000000000000000000815260040180806020018281038252603681526020018061130e6036913960400191505060405180910390fd5b828160e001818152505050505050565b6003818051602081018201805184825260208301602085012081835280955050505050506000915090505481565b828054600181600116156101000203166002900490600052602060002090601f016020900481019282601f1061126457805160ff1916838001178555611292565b82800160010185558215611292579182015b82811115611291578251825591602001919060010190611276565b5b50905061129f91906112e8565b5090565b60405180610100016040528060008152602001600081526020016000815260200160608152602001606081526020016060815260200160608152602001600081525090565b61130a91905b808211156113065760008160009055506001016112ee565b5090565b9056fe4e6577206b696c6f6d65747265732063616e6e6f74206265206c657373207468616e20746865206578697374696e672076616c75652ea165627a7a72305820a410d887bab62389d360d0ab2fc94e5e0c57bb3aff96f4c85ae8fa265b9031b80029",
  "source": "/**\r\n * Vehicle registration information.\r\n * When a vehicle is produced it will be assigned number to the important part\r\n * for identification purpose.\r\n * This entity contain the information of vehicles' identification\r\n * e.g. manufactured year, body number, engine number\r\n */\r\n\r\n pragma solidity ^0.5.0;\r\n\r\n contract Vehicle {\r\n\r\n   struct VehicleDetail {\r\n     uint registrationId;\r\n     uint modelId;\r\n     uint year;\r\n     string bodyNumber;\r\n     string engineNumber;\r\n     string color;\r\n     string additionalFeatures;\r\n     uint kilometres;\r\n   }\r\n\r\n  /**\r\n   * @dev Mapping between unique id and Vehicle Detail\r\n   */\r\n  mapping(uint => VehicleDetail) public registeredModels;\r\n  uint public vehicleUid;\r\n\r\n  /**\r\n   * @dev Mapping between body number and Vehicle unique id\r\n   */\r\n  mapping(string => uint) public bodyNumberIndex;\r\n\r\n  /**\r\n   * @dev Mapping between engine number and Vehicle unique id\r\n   */\r\n  mapping(string => uint) public engineIndex;\r\n\r\n  /**\r\n   * @dev Mapping between model id and list of Vehicle unique id\r\n   */\r\n  mapping(uint => uint[]) public modelIndex;\r\n\r\n  /**\r\n   * @dev Vehicle is registered successfully\r\n   */\r\n  event VehicleRegistered(uint vehicleUid, string bodyNumber, string engineNumber, uint modelId);\r\n\r\n  function menufacturingRegister(\r\n    uint _modelId,\r\n    uint _year,\r\n    string memory _bodyNumber,\r\n    string memory _engineNumber,\r\n    string memory _color,\r\n    string memory _additionalFeatures,\r\n    uint _kilometres\r\n  ) public {\r\n\r\n    vehicleUid++;\r\n    registeredModels[vehicleUid] = VehicleDetail (\r\n     vehicleUid,\r\n     _modelId,\r\n     _year,\r\n     _bodyNumber,\r\n     _engineNumber,\r\n     _color,\r\n     _additionalFeatures,\r\n     _kilometres\r\n    );\r\n\r\n    bodyNumberIndex[_bodyNumber] = vehicleUid;\r\n    engineIndex[_engineNumber] = vehicleUid;\r\n    modelIndex[_modelId].push(vehicleUid);\r\n\r\n    emit VehicleRegistered(vehicleUid, _bodyNumber, _engineNumber, _modelId);\r\n  }\r\n\r\n  function updateKilometres(string memory _bodyNumber, uint _kilometres) public {\r\n    uint vId = bodyNumberIndex[_bodyNumber];\r\n    VehicleDetail memory vehicleDetail = registeredModels[vId];\r\n    require(vehicleDetail.kilometres <= _kilometres, \"New kilometres cannot be less than the existing value.\");\r\n    vehicleDetail.kilometres = _kilometres;\r\n    // registeredModels[vId] = vehicleDetail;\r\n  }\r\n }",
  "sourcePath": "F:/projects/blockchain/car_insurance/contracts/Vehicle.sol",
  "compiler": {
    "name": "solc",
    "version": "0.5.8+commit.23d335f2.Emscripten.clang"
  },
  "schemaVersion": "3.0.11",
  "updatedAt": "2019-06-26T12:29:12.009Z",
  "devdoc": {
    "methods": {}
  },
  "userdoc": {
    "methods": {}
  }
}