{
  "contractName": "VehicleModel",
  "abi": [
    {
      "constant": true,
      "inputs": [
        {
          "name": "",
          "type": "uint256"
        }
      ],
      "name": "models",
      "outputs": [
        {
          "name": "brand",
          "type": "string"
        },
        {
          "name": "model",
          "type": "string"
        },
        {
          "name": "numberOfSeats",
          "type": "uint8"
        },
        {
          "name": "transmission",
          "type": "uint8"
        },
        {
          "name": "engineSize",
          "type": "uint8"
        },
        {
          "name": "fuelType",
          "type": "uint8"
        }
      ],
      "payable": false,
      "stateMutability": "view",
      "type": "function"
    },
    {
      "constant": true,
      "inputs": [],
      "name": "id",
      "outputs": [
        {
          "name": "",
          "type": "uint256"
        }
      ],
      "payable": false,
      "stateMutability": "view",
      "type": "function"
    },
    {
      "constant": false,
      "inputs": [
        {
          "name": "_brand",
          "type": "string"
        },
        {
          "name": "_model",
          "type": "string"
        },
        {
          "name": "_numberOfSeats",
          "type": "uint8"
        },
        {
          "name": "_transmission",
          "type": "uint256"
        },
        {
          "name": "_engineSize",
          "type": "uint8"
        },
        {
          "name": "_fuelType",
          "type": "uint256"
        }
      ],
      "name": "addModel",
      "outputs": [],
      "payable": false,
      "stateMutability": "nonpayable",
      "type": "function"
    }
  ],
  "bytecode": "0x608060405234801561001057600080fd5b50610768806100206000396000f3fe608060405234801561001057600080fd5b50600436106100415760003560e01c80636a030ca9146100465780638f42a66f1461019d578063af640d0f1461031d575b600080fd5b6100726004803603602081101561005c57600080fd5b810190808035906020019092919050505061033b565b6040518080602001806020018760ff1660ff16815260200186600181111561009657fe5b60ff1681526020018560ff1660ff1681526020018460018111156100b657fe5b60ff168152602001838103835289818151815260200191508051906020019080838360005b838110156100f65780820151818401526020810190506100db565b50505050905090810190601f1680156101235780820380516001836020036101000a031916815260200191505b50838103825288818151815260200191508051906020019080838360005b8381101561015c578082015181840152602081019050610141565b50505050905090810190601f1680156101895780820380516001836020036101000a031916815260200191505b509850505050505050505060405180910390f35b61031b600480360360c08110156101b357600080fd5b81019080803590602001906401000000008111156101d057600080fd5b8201836020820111156101e257600080fd5b8035906020019184600183028401116401000000008311171561020457600080fd5b91908080601f016020809104026020016040519081016040528093929190818152602001838380828437600081840152601f19601f8201169050808301925050505050505091929192908035906020019064010000000081111561026757600080fd5b82018360208201111561027957600080fd5b8035906020019184600183028401116401000000008311171561029b57600080fd5b91908080601f016020809104026020016040519081016040528093929190818152602001838380828437600081840152601f19601f820116905080830192505050505050509192919290803560ff16906020019092919080359060200190929190803560ff169060200190929190803590602001909291905050506104db565b005b61032561063f565b6040518082815260200191505060405180910390f35b6001602052806000526040600020600091509050806000018054600181600116156101000203166002900480601f0160208091040260200160405190810160405280929190818152602001828054600181600116156101000203166002900480156103e75780601f106103bc576101008083540402835291602001916103e7565b820191906000526020600020905b8154815290600101906020018083116103ca57829003601f168201915b505050505090806001018054600181600116156101000203166002900480601f0160208091040260200160405190810160405280929190818152602001828054600181600116156101000203166002900480156104855780601f1061045a57610100808354040283529160200191610485565b820191906000526020600020905b81548152906001019060200180831161046857829003601f168201915b5050505050908060020160009054906101000a900460ff16908060020160019054906101000a900460ff16908060020160029054906101000a900460ff16908060020160039054906101000a900460ff16905086565b6104e3610645565b6040518060c001604052808881526020018781526020018660ff16815260200185600181111561050f57fe5b600181111561051a57fe5b81526020018460ff16815260200183600181111561053457fe5b600181111561053f57fe5b81525090508060016000806000815460010191905081905581526020019081526020016000206000820151816000019080519060200190610581929190610697565b50602082015181600101908051906020019061059e929190610697565b5060408201518160020160006101000a81548160ff021916908360ff16021790555060608201518160020160016101000a81548160ff021916908360018111156105e457fe5b021790555060808201518160020160026101000a81548160ff021916908360ff16021790555060a08201518160020160036101000a81548160ff0219169083600181111561062e57fe5b021790555090505050505050505050565b60005481565b6040518060c001604052806060815260200160608152602001600060ff1681526020016000600181111561067557fe5b8152602001600060ff1681526020016000600181111561069157fe5b81525090565b828054600181600116156101000203166002900490600052602060002090601f016020900481019282601f106106d857805160ff1916838001178555610706565b82800160010185558215610706579182015b828111156107055782518255916020019190600101906106ea565b5b5090506107139190610717565b5090565b61073991905b8082111561073557600081600090555060010161071d565b5090565b9056fea165627a7a72305820dd664cde6ace6b33ae7cacb9686529aef5f1c974325d24dccf38c1743d04246f0029",
  "source": "/**\r\n  * Characteric of a vehicle model in the market.\r\n  * This model only contain main infomation of vehicle model.\r\n  * Other specific information e.g. body number, color, year are stored in VehicleDetail.sol\r\n  */\r\n\r\npragma solidity ^0.5.0;\r\n\r\n// import 'openzeppelin-solidity/contracts/ownership/Ownable.sol';\r\n\r\ncontract VehicleModel {\r\n\r\n  enum Transmission {\r\n    Manual,\r\n    Automatic\r\n  }\r\n\r\n  enum FuelType {\r\n    Pretol,\r\n    Deisel\r\n  }\r\n\r\n  struct ModelDetail {\r\n    string brand;\r\n    string model;\r\n    uint8 numberOfSeats;\r\n    Transmission transmission;\r\n    uint8 engineSize; // engine size in cc\r\n    FuelType fuelType; // fuel type - Pretol / Deisel\r\n  }\r\n\r\n  uint public id;\r\n  mapping(uint => ModelDetail) public models;\r\n\r\n  /**\r\n   * @dev add a new vehicle model\r\n   */\r\n  function addModel(\r\n    string memory _brand,\r\n    string memory _model,\r\n    uint8 _numberOfSeats,\r\n    uint _transmission,\r\n    uint8 _engineSize,\r\n    uint _fuelType) public {\r\n\r\n    ModelDetail memory detail = ModelDetail(\r\n      _brand,\r\n      _model,\r\n      _numberOfSeats,\r\n      Transmission(_transmission),\r\n      _engineSize,\r\n      FuelType(_fuelType)\r\n    );\r\n\r\n    models[++id] = detail;\r\n  }\r\n}",
  "sourcePath": "F:/projects/blockchain/car_insurance/contracts/VehicleModel.sol",
  "compiler": {
    "name": "solc",
    "version": "0.5.8+commit.23d335f2.Emscripten.clang"
  },
  "schemaVersion": "3.0.11",
  "updatedAt": "2019-06-26T01:32:15.393Z",
  "devdoc": {
    "methods": {
      "addModel(string,string,uint8,uint256,uint8,uint256)": {
        "details": "add a new vehicle model\r"
      }
    }
  },
  "userdoc": {
    "methods": {}
  }
}